:10000000A4C00000BDC00000BBC00000B9C000001B
:10001000B7C00000B5C00000B3C00000B1C0000010
:10002000AFC00000ADC00000ABC0000071C5000053
:1000300018C60000A5C00000A3C00000A1C00000B9
:100040009FC000009DC000009BC0000099C0000040
:1000500097C0000095C0000093C0000091C0000050
:100060008FC000008DC000008BC0000089C0000060
:1000700087C000000D0A00456E746572696E6720C6
:1000800044465520626F6F746C6F616465722E2EEA
:100090002E006174760031333831383036363939D4
:1000A000006174666C617368004F4646004F4E00F5
:1000B00061747374617475730032034C0061007273
:1000C000006D0020007300740061007400750073FF
:1000D0000000004203440061006E00690065006C8E
:1000E000002000560069006E006400650076006123
:1000F00000670000000403090409023E0002010039
:10010000C0320904000001020201000524001001B0
:10011000042402060524060001070582030800FFE7
:1001200009040100020A000000070504021000058E
:1001300007058302100005120110010200000803E8
:1001400004359101000102DC010011241FBECFEF34
:10015000D4E0DEBFCDBF11E0A0E0B1E0E4E0F0E12B
:1001600002C005900D92AC31B107D9F711E0ACE1B6
:10017000B1E001C01D92AD32B107E1F711D040C727
:100180003FCFCF93DF93EC0103C080E091E093D1A8
:10019000FE01219664916111F8CFDF91CF9108950E
:1001A000CF93DF93CDB7DEB764970FB6F894DEBF79
:1001B0000FBECDBF19821A821B821C82FE013596AA
:1001C00080E1DF011D928A95E9F704B603FE17C0AE
:1001D00080912D0190912E01A0912F01B0913001BD
:1001E00085359A4AA545BA4A51F410922D011092CC
:1001F0002E0110922F01109230010C9400384F996B
:1002000002C00C940038399A419A579A5F9A84B781
:10021000877F84BF88E10FB6F894809360001092C6
:1002200060000FBE90E080E80FB6F8948093610004
:10023000909361000FBE509A5CD47894912CAA24BC
:10024000A394B12CAC0EBD1E65018A2C7B2C6624B8
:10025000639401C0570180E091E095D1750197FD4D
:1002600019C0D5018D937D018A3051F4F501829139
:100270008D3009F41082F5011082BB24B3940BC0B9
:10028000CD018C199D0943972CF01982B12CE82CD3
:10029000F72C01C0B12C80E091E05FD187D6BB2064
:1002A00009F45EC048E050E060EB70E0882D972DC7
:1002B00099D6892B59F4992019F08DEA90E002C063
:1002C00089EA90E05EDF84E790E05BDF43E050E0A6
:1002D00062E970E0882D972D85D6892B31F486E967
:1002E00090E04FDF84E790E04CDF47E050E061EAC8
:1002F00070E0882D972D76D6892B79F587E790E0E9
:1003000040DF84E790E03DDF80E091E026D180E0AF
:1003100091E0F8D01BE44AD6FFEF29EF80E0F150DE
:1003200020408040E1F700C000001150A1F793D3B6
:1003300085E59AEADC0180932D0190932E01A0932C
:100340002F01B0933001F894809160008861809310
:10035000600088E080936000FFCF1982E82CF72CC2
:1003600089B186958625082F017010E0892D90E0CF
:100370000817190769F140911C0150911D01609106
:100380001E0170911F014F5F5F4F6F4F7F4F409372
:100390001C0150931D0160931E0170931F01403298
:1003A0005E446105710509F055CF99B091FA992421
:1003B00090F8962429F08DEA90E0E3DE589A04C084
:1003C00089EA90E0DEDE589884E790E0DADE42CFFA
:1003D00010921C0110921D0110921E0110921F011B
:1003E00039CF80E091E042C00895089580E091E027
:1003F000F8C0292F33272230310539F02330310559
:1004000049F02130310521F128C0EEE3F0E089EF19
:1004100090E027C099278130910561F082309105E5
:1004200081F0892BD1F4E5EFF0E0E491F0E085EF85
:1004300090E017C0E3EDF0E0E491F0E083ED90E0B0
:1004400010C0E9EBF0E0E491F0E089EB90E009C046
:10045000E2E1F0E087E391E004C0E0E0F0E080E07A
:1004600090E0DA018D939C93CF010895CF93DF93B1
:10047000EC014096FC018BE0DF011D928A95E9F7C3
:1004800082E08C83898783E08E8761E0CE010196CC
:1004900051D2882361F061E0CE0106964BD28823C9
:1004A00031F061E0CE010B96DF91CF9143C280E045
:1004B000DF91CF910895CF93C62F2091240124304E
:1004C000F1F4FC014489558966897789452B462BCF
:1004D000472BA9F081818F708093E9008091E8001B
:1004E00085FF04C0C093F10080E00AC08091E8005D
:1004F0008E778093E8007DD28823A1F301C082E04B
:10050000CF91089520912401243029F5FC014489DC
:10051000558966897789452B462B472BE1F08181E8
:100520008F708093E9008091F200811102C080E019
:1005300008959091E8008091E8008E778093E8001C
:1005400095FDF5CF56D2811107C09091E8009E77B6
:100550009093E800089582E00895209124012430CA
:1005600089F4FC014489558966897789452B462B96
:10057000472B41F021812F702093E9002091E80062
:1005800020FDC0CF089520912401243019F02FEFD1
:100590003FEF24C0FC014489558966897789452B42
:1005A000462B472BA1F386818F708093E9008091C1
:1005B000E80082FFECCF8091F200882321F02091A7
:1005C000F10030E002C02FEF3FEF8091F200811187
:1005D00005C08091E8008B778093E800C9010895F9
:1005E0000895CF93DF93EC018091E80083FFA7C0CB
:1005F000888190E02091290130912A01281739073C
:1006000009F09DC080912601813261F020F4803292
:1006100009F095C03DC0823209F46DC0833209F003
:100620008EC07DC080912501813A09F088C08091FB
:10063000E800877F8093E8008091E80080FFFCCF8E
:100640004C895D896E897F894093F100BB27A72F74
:10065000962F852F8093F100CB01AA27BB2780938B
:10066000F100472F5527662777274093F100888DA3
:100670008093F100898D8093F1008A8D8093F10041
:100680008091E8008E778093E800DF91CF9190C150
:1006900080912501813209F052C08091E800877F66
:1006A0008093E80005C080912401882309F447C0A5
:1006B0008091E80082FFF7CF3091F1002091F100A6
:1006C0009091F1008091F1003C8B2D8B9E8B8F8B54
:1006D0008091F100888F8091F100898F8091F100E5
:1006E0008A8F8091E8008B778093E80061D1CE01FA
:1006F000DF91CF9175CF80912501813201F58091F5
:10070000E800877F8093E80053D180912701909182
:100710002801998B888BCE01DF91CF9161CF809199
:100720002501813261F48091E800877F8093E800A1
:100730003FD160912701CE01DF91CF9151CFDF9161
:10074000CF91089520912B0130912C012617370766
:1007500048F06115710539F42091E8002E77209357
:10076000E80001C0B9019C0180E034C090912401EF
:10077000992309F443C0953009F442C09091E800F0
:1007800093FD3AC09091E80092FD30C09091E8004E
:1007900090FF20C08091F20090E0F901821B930B42
:1007A00005C021912093F100615071099F01280F2C
:1007B000391F6115710519F02830310590F381E07A
:1007C0002830310509F080E09091E8009E77909301
:1007D000E8009F016115710549F68111C7CF06C078
:1007E00080912401882351F0853051F08091E800F8
:1007F00082FFF6CF80E0089581E0089582E00895B9
:1008000083E0089520912B0130912C0126173707A2
:1008100048F06115710539F42091E8002E77209396
:10082000E80001C0B9019C0180E035C0909124012D
:10083000992309F444C0953009F443C09091E8002D
:1008400093FD3BC09091E80092FD31C09091E8008B
:1008500090FF21C08091F20090E0F901821B930B80
:1008600006C024912093F1003196615071099C01DA
:100870002E0F3F1F6115710519F02830310588F3DF
:1008800081E02830310509F080E09091E8009E7702
:100890009093E8009F016115710541F68111C6CF63
:1008A00006C080912401882351F0853051F0809159
:1008B000E80082FFF6CF80E0089581E0089582E0AD
:1008C000089583E00895982F2CC09093E90098171D
:1008D00039F07091EC002091ED005091F00003C0D0
:1008E000242F762F50E021FD02C09F5F1AC0309167
:1008F000EB003E7F3093EB003091ED003D7F309375
:10090000ED003091EB0031603093EB007093EC0020
:100910002093ED005093F0002091EE0027FDE5CFED
:1009200007C0953090F28F708093E90081E00895C0
:1009300080E008950F931F93CF93DF93062FEC0170
:1009400010E02EC09881911103C01F5F259628C02A
:100950002C81E981FA816B81892F8F70853010F0AD
:1009600080E021C0223010F056E001C052E028E0C3
:1009700030E040E003C04F5F220F331F2E173F07C8
:10098000D0F34295407F452B991F9927991F629577
:10099000660F660F607C692B96DF8111D6CFE0CFA2
:1009A0001013D0CF81E0DF91CF911F910F91089567
:1009B0008091250187FD05C08091E80080FF0EC071
:1009C00012C08091E80082FD05C080912401811150
:1009D000F8CF08958091E8008B7708C080912401BA
:1009E0008111EACF08958091E8008E778093E80026
:1009F00008958091E4009091E50045E62091EC0097
:100A000020FD1FC023C020912401222391F0253016
:100A100091F02091EB0025FD10C02091E400309171
:100A2000E5002817390751F34150C90139F784E02F
:100A3000089582E0089583E0089581E0089580E0BC
:100A400008952091E80020FFDECFF9CF2091E80043
:100A500022FFD9CFF4CF56D058D0E0EEF0E080811D
:100A600081608083E8EDF0E080818F77808319BC1E
:100A7000E3E6F0E080818160808310922301089595
:100A800041D043D08091D8008F778093D800809157
:100A9000D80080688093D8008091D8008F7D8093A3
:100AA000D80084E089BD86E089BD09B400FEFDCF91
:100AB0001092240110922001109222011092210123
:100AC00042E060E080E0FFDE8091E1008E7F809375
:100AD000E1008091E20081608093E2008091E20079
:100AE00088608093E2008091E0008E7F8093E00038
:100AF0000895E3E6F0E080818E7F808381E080933B
:100B00002301BECF1092E20008951092E1000895F3
:100B10001F920F920FB60F9211242F933F934F9372
:100B20005F936F937F938F939F93AF93BF93EF9355
:100B3000FF938091E10082FF0AC08091E20082FF72
:100B400006C08091E1008B7F8093E1002ED28091DE
:100B5000E10080FF17C08091E20080FF13C0809108
:100B6000E2008E7F8093E2008091E20080618093BA
:100B7000E2008091D80080628093D80019BC109266
:100B8000240133DC8091E10084FF2FC08091E200DA
:100B900084FF2BC084E089BD86E089BD09B400FED6
:100BA000FDCF8091D8008F7D8093D8008091E100A7
:100BB0008F7E8093E1008091E2008F7E8093E2003F
:100BC0008091E20081608093E2008091200188237F
:100BD00011F084E007C08091E30087FF02C083E04A
:100BE00001C081E080932401FFDB8091E10083FF5D
:100BF00027C08091E20083FF23C08091E100877FBE
:100C00008093E10082E08093240110922001809182
:100C1000E1008E7F8093E1008091E2008E7F8093DF
:100C2000E2008091E20080618093E20042E060E0B7
:100C300080E049DE8091F00088608093F000B5D1BB
:100C4000FF91EF91BF91AF919F918F917F916F91A4
:100C50005F914F913F912F910F900FBE0F901F907A
:100C600018951F920F920FB60F9211242F933F9356
:100C70004F935F936F937F938F939F93AF93BF93A4
:100C8000CF93EF93FF938091E9008F709091EC00E8
:100C900090FF02C090E801C090E0C92FC82B1092CD
:100CA000E9008091F000877F8093F00078941CD059
:100CB0001092E9008091F00088608093F000CF707E
:100CC000C093E900FF91EF91CF91BF91AF919F91B8
:100CD0008F917F916F915F914F913F912F910F90E5
:100CE0000FBE0F901F9018951F93CF93DF93CDB732
:100CF000DEB7AC970FB6F894DEBF0FBECDBFE5E20E
:100D0000F1E08091F100819321E0ED32F207C9F723
:100D10006DDB8091E80083FF30C1809125019091C7
:100D20002601953009F487C038F49130B1F170F0A4
:100D3000933009F022C131C0983009F4F3C09930E2
:100D400009F4FFC0963009F018C19BC0803821F02B
:100D5000823809F012C108C08091210190912201CE
:100D6000992389F082600FC08091290190912A0116
:100D70008F7099278093E9008091EB0085FB88278D
:100D800080F91092E9009091E800977F9093E80035
:100D90008093F1001092F100D0C0882319F08230C6
:100DA00009F0EBC08F7121F0823009F0E6C00BC072
:100DB00080912701813009F0E0C0933009F080E094
:100DC000809322012FC08091270181112BC0809137
:100DD000290190912A018F709927009709F4CDC0BD
:100DE0008093E9002091EB0020FF1CC02091260198
:100DF000233021F48091EB00806212C09091EB00CF
:100E000090619093EB0021E030E001C0220F8A95C1
:100E1000EAF72093EA001092EA008091EB008860E4
:100E20008093EB001092E9008091E800877F809327
:100E3000E800BEDDA2C08111A0C080912701909181
:100E400028018F779927182F9091E3009078982B9D
:100E50009093E3008091E800877F8093E800A8DD0D
:100E60008091E80080FFFCCF8091E3008068809350
:100E7000E300112311F083E001C082E0809324019C
:100E80007CC08058823008F078C080912701909112
:100E900028018C3D23E0920771F583E08A838AE282
:100EA00089834FB7F894DE01139620E03EE051E2CB
:100EB000E32FF0E050935700E49120FF03C0E29548
:100EC000EF703F5FEF708E2F90E0EA3010F0C79622
:100ED00001C0C0968D939D932F5F243149F74FBF7A
:100EE0008091E800877F8093E8006AE270E0CE019D
:100EF000019628DC11C0AE01455D5F4F609129016C
:100F000078DA0097D1F12091E800277F2093E8005C
:100F1000BC018BA59CA576DC8091E8008B77809343
:100F2000E8002BC0803849F58091E800877F8093E6
:100F3000E800809120018093F1008091E8008E7795
:100F400076CF81111AC0909127019230B0F4809130
:100F5000E800877F8093E8009093200129DD80914D
:100F60002001811104C08091E30087FF02C084E06A
:100F700001C081E08093240134DA8091E80083FF8E
:100F80000AC08091E800877F8093E8008091EB00A1
:100F900080628093EB00AC960FB6F894DEBF0FBE74
:100FA000CDBFDF91CF911F9108950895CF93809188
:100FB00024018823A9F08091E9008F709091EC00C2
:100FC00090FF02C090E801C090E0C92FC82B10929A
:100FD000E9008091E80083FD87DECF70C093E900CF
:100FE000CF910895FB01DC014150504030F08D91CC
:100FF0000590801919F40020B9F7881B990B089502
:04100000F894FFCF92
:1010040000831000000104100000018208000001A8
:0C101400000000000000000000000000D0
:00000001FF
